{
    "_format": "hh-sol-artifact-1",
    "contractName": "GFCT",
    "sourceName": "contracts/GFCT.sol",
    "abi": [
        {
            "inputs": [],
            "stateMutability": "nonpayable",
            "type": "constructor"
        },
        {
            "inputs": [],
            "name": "ApprovalCallerNotOwnerNorApproved",
            "type": "error"
        },
        {
            "inputs": [],
            "name": "ApprovalQueryForNonexistentToken",
            "type": "error"
        },
        {
            "inputs": [],
            "name": "ApprovalToCurrentOwner",
            "type": "error"
        },
        {
            "inputs": [],
            "name": "ApproveToCaller",
            "type": "error"
        },
        {
            "inputs": [],
            "name": "BalanceQueryForZeroAddress",
            "type": "error"
        },
        {
            "inputs": [],
            "name": "MintToZeroAddress",
            "type": "error"
        },
        {
            "inputs": [],
            "name": "MintZeroQuantity",
            "type": "error"
        },
        {
            "inputs": [],
            "name": "OwnerQueryForNonexistentToken",
            "type": "error"
        },
        {
            "inputs": [],
            "name": "TransferCallerNotOwnerNorApproved",
            "type": "error"
        },
        {
            "inputs": [],
            "name": "TransferFromIncorrectOwner",
            "type": "error"
        },
        {
            "inputs": [],
            "name": "TransferToNonERC721ReceiverImplementer",
            "type": "error"
        },
        {
            "inputs": [],
            "name": "TransferToZeroAddress",
            "type": "error"
        },
        {
            "inputs": [],
            "name": "URIQueryForNonexistentToken",
            "type": "error"
        },
        {
            "anonymous": false,
            "inputs": [
                {
                    "indexed": true,
                    "internalType": "address",
                    "name": "owner",
                    "type": "address"
                },
                {
                    "indexed": true,
                    "internalType": "address",
                    "name": "approved",
                    "type": "address"
                },
                {
                    "indexed": true,
                    "internalType": "uint256",
                    "name": "tokenId",
                    "type": "uint256"
                }
            ],
            "name": "Approval",
            "type": "event"
        },
        {
            "anonymous": false,
            "inputs": [
                {
                    "indexed": true,
                    "internalType": "address",
                    "name": "owner",
                    "type": "address"
                },
                {
                    "indexed": true,
                    "internalType": "address",
                    "name": "operator",
                    "type": "address"
                },
                {
                    "indexed": false,
                    "internalType": "bool",
                    "name": "approved",
                    "type": "bool"
                }
            ],
            "name": "ApprovalForAll",
            "type": "event"
        },
        {
            "anonymous": false,
            "inputs": [
                {
                    "indexed": true,
                    "internalType": "address",
                    "name": "previousOwner",
                    "type": "address"
                },
                {
                    "indexed": true,
                    "internalType": "address",
                    "name": "newOwner",
                    "type": "address"
                }
            ],
            "name": "OwnershipTransferred",
            "type": "event"
        },
        {
            "anonymous": false,
            "inputs": [
                {
                    "indexed": true,
                    "internalType": "address",
                    "name": "from",
                    "type": "address"
                },
                {
                    "indexed": true,
                    "internalType": "address",
                    "name": "to",
                    "type": "address"
                },
                {
                    "indexed": true,
                    "internalType": "uint256",
                    "name": "tokenId",
                    "type": "uint256"
                }
            ],
            "name": "Transfer",
            "type": "event"
        },
        {
            "inputs": [],
            "name": "ToggleReveal",
            "outputs": [],
            "stateMutability": "nonpayable",
            "type": "function"
        },
        {
            "inputs": [
                {
                    "internalType": "address",
                    "name": "to",
                    "type": "address"
                },
                {
                    "internalType": "uint256",
                    "name": "tokenId",
                    "type": "uint256"
                }
            ],
            "name": "approve",
            "outputs": [],
            "stateMutability": "nonpayable",
            "type": "function"
        },
        {
            "inputs": [
                {
                    "internalType": "address",
                    "name": "owner",
                    "type": "address"
                }
            ],
            "name": "balanceOf",
            "outputs": [
                {
                    "internalType": "uint256",
                    "name": "",
                    "type": "uint256"
                }
            ],
            "stateMutability": "view",
            "type": "function"
        },
        {
            "inputs": [],
            "name": "baseSuffix",
            "outputs": [
                {
                    "internalType": "string",
                    "name": "",
                    "type": "string"
                }
            ],
            "stateMutability": "view",
            "type": "function"
        },
        {
            "inputs": [
                {
                    "internalType": "uint256",
                    "name": "tokenId",
                    "type": "uint256"
                }
            ],
            "name": "getApproved",
            "outputs": [
                {
                    "internalType": "address",
                    "name": "",
                    "type": "address"
                }
            ],
            "stateMutability": "view",
            "type": "function"
        },
        {
            "inputs": [],
            "name": "hiddenURI",
            "outputs": [
                {
                    "internalType": "string",
                    "name": "",
                    "type": "string"
                }
            ],
            "stateMutability": "view",
            "type": "function"
        },
        {
            "inputs": [
                {
                    "internalType": "address",
                    "name": "owner",
                    "type": "address"
                },
                {
                    "internalType": "address",
                    "name": "operator",
                    "type": "address"
                }
            ],
            "name": "isApprovedForAll",
            "outputs": [
                {
                    "internalType": "bool",
                    "name": "",
                    "type": "bool"
                }
            ],
            "stateMutability": "view",
            "type": "function"
        },
        {
            "inputs": [],
            "name": "maxMint",
            "outputs": [
                {
                    "internalType": "uint256",
                    "name": "",
                    "type": "uint256"
                }
            ],
            "stateMutability": "view",
            "type": "function"
        },
        {
            "inputs": [],
            "name": "maxSupply",
            "outputs": [
                {
                    "internalType": "uint256",
                    "name": "",
                    "type": "uint256"
                }
            ],
            "stateMutability": "view",
            "type": "function"
        },
        {
            "inputs": [
                {
                    "internalType": "bytes32[]",
                    "name": "proof",
                    "type": "bytes32[]"
                },
                {
                    "internalType": "uint256",
                    "name": "_mintAmount",
                    "type": "uint256"
                }
            ],
            "name": "mint",
            "outputs": [],
            "stateMutability": "payable",
            "type": "function"
        },
        {
            "inputs": [],
            "name": "mintPrice",
            "outputs": [
                {
                    "internalType": "uint256",
                    "name": "",
                    "type": "uint256"
                }
            ],
            "stateMutability": "view",
            "type": "function"
        },
        {
            "inputs": [],
            "name": "name",
            "outputs": [
                {
                    "internalType": "string",
                    "name": "",
                    "type": "string"
                }
            ],
            "stateMutability": "view",
            "type": "function"
        },
        {
            "inputs": [],
            "name": "owner",
            "outputs": [
                {
                    "internalType": "address",
                    "name": "",
                    "type": "address"
                }
            ],
            "stateMutability": "view",
            "type": "function"
        },
        {
            "inputs": [
                {
                    "internalType": "uint256",
                    "name": "tokenId",
                    "type": "uint256"
                }
            ],
            "name": "ownerOf",
            "outputs": [
                {
                    "internalType": "address",
                    "name": "",
                    "type": "address"
                }
            ],
            "stateMutability": "view",
            "type": "function"
        },
        {
            "inputs": [],
            "name": "released",
            "outputs": [
                {
                    "internalType": "bool",
                    "name": "",
                    "type": "bool"
                }
            ],
            "stateMutability": "view",
            "type": "function"
        },
        {
            "inputs": [],
            "name": "renounceOwnership",
            "outputs": [],
            "stateMutability": "nonpayable",
            "type": "function"
        },
        {
            "inputs": [],
            "name": "revealed",
            "outputs": [
                {
                    "internalType": "bool",
                    "name": "",
                    "type": "bool"
                }
            ],
            "stateMutability": "view",
            "type": "function"
        },
        {
            "inputs": [],
            "name": "revealedURI",
            "outputs": [
                {
                    "internalType": "string",
                    "name": "",
                    "type": "string"
                }
            ],
            "stateMutability": "view",
            "type": "function"
        },
        {
            "inputs": [],
            "name": "root",
            "outputs": [
                {
                    "internalType": "bytes32",
                    "name": "",
                    "type": "bytes32"
                }
            ],
            "stateMutability": "view",
            "type": "function"
        },
        {
            "inputs": [
                {
                    "internalType": "address",
                    "name": "from",
                    "type": "address"
                },
                {
                    "internalType": "address",
                    "name": "to",
                    "type": "address"
                },
                {
                    "internalType": "uint256",
                    "name": "tokenId",
                    "type": "uint256"
                }
            ],
            "name": "safeTransferFrom",
            "outputs": [],
            "stateMutability": "nonpayable",
            "type": "function"
        },
        {
            "inputs": [
                {
                    "internalType": "address",
                    "name": "from",
                    "type": "address"
                },
                {
                    "internalType": "address",
                    "name": "to",
                    "type": "address"
                },
                {
                    "internalType": "uint256",
                    "name": "tokenId",
                    "type": "uint256"
                },
                {
                    "internalType": "bytes",
                    "name": "_data",
                    "type": "bytes"
                }
            ],
            "name": "safeTransferFrom",
            "outputs": [],
            "stateMutability": "nonpayable",
            "type": "function"
        },
        {
            "inputs": [
                {
                    "internalType": "address",
                    "name": "operator",
                    "type": "address"
                },
                {
                    "internalType": "bool",
                    "name": "approved",
                    "type": "bool"
                }
            ],
            "name": "setApprovalForAll",
            "outputs": [],
            "stateMutability": "nonpayable",
            "type": "function"
        },
        {
            "inputs": [
                {
                    "internalType": "string",
                    "name": "_revealedURI",
                    "type": "string"
                }
            ],
            "name": "setData",
            "outputs": [],
            "stateMutability": "nonpayable",
            "type": "function"
        },
        {
            "inputs": [
                {
                    "internalType": "string",
                    "name": "_hiddenURI",
                    "type": "string"
                }
            ],
            "name": "setHiddenURI",
            "outputs": [],
            "stateMutability": "nonpayable",
            "type": "function"
        },
        {
            "inputs": [
                {
                    "internalType": "bytes32",
                    "name": "_root",
                    "type": "bytes32"
                }
            ],
            "name": "setRoot",
            "outputs": [],
            "stateMutability": "nonpayable",
            "type": "function"
        },
        {
            "inputs": [
                {
                    "internalType": "bytes4",
                    "name": "interfaceId",
                    "type": "bytes4"
                }
            ],
            "name": "supportsInterface",
            "outputs": [
                {
                    "internalType": "bool",
                    "name": "",
                    "type": "bool"
                }
            ],
            "stateMutability": "view",
            "type": "function"
        },
        {
            "inputs": [],
            "name": "symbol",
            "outputs": [
                {
                    "internalType": "string",
                    "name": "",
                    "type": "string"
                }
            ],
            "stateMutability": "view",
            "type": "function"
        },
        {
            "inputs": [],
            "name": "toggleRelease",
            "outputs": [],
            "stateMutability": "nonpayable",
            "type": "function"
        },
        {
            "inputs": [
                {
                    "internalType": "uint256",
                    "name": "tokenId",
                    "type": "uint256"
                }
            ],
            "name": "tokenURI",
            "outputs": [
                {
                    "internalType": "string",
                    "name": "",
                    "type": "string"
                }
            ],
            "stateMutability": "view",
            "type": "function"
        },
        {
            "inputs": [],
            "name": "totalSupply",
            "outputs": [
                {
                    "internalType": "uint256",
                    "name": "",
                    "type": "uint256"
                }
            ],
            "stateMutability": "view",
            "type": "function"
        },
        {
            "inputs": [
                {
                    "internalType": "address",
                    "name": "from",
                    "type": "address"
                },
                {
                    "internalType": "address",
                    "name": "to",
                    "type": "address"
                },
                {
                    "internalType": "uint256",
                    "name": "tokenId",
                    "type": "uint256"
                }
            ],
            "name": "transferFrom",
            "outputs": [],
            "stateMutability": "nonpayable",
            "type": "function"
        },
        {
            "inputs": [
                {
                    "internalType": "address",
                    "name": "newOwner",
                    "type": "address"
                }
            ],
            "name": "transferOwnership",
            "outputs": [],
            "stateMutability": "nonpayable",
            "type": "function"
        },
        {
            "inputs": [],
            "name": "withdraw",
            "outputs": [],
            "stateMutability": "payable",
            "type": "function"
        }
    ],
    "bytecode": "0x608060405260405180602001604052806000815250600b90805190602001906200002b9291906200028a565b506040518060400160405280600581526020017f2e6a736f6e000000000000000000000000000000000000000000000000000000815250600c9080519060200190620000799291906200028a565b506005600d55662386f26fc10000600e556002600f556000601060006101000a81548160ff0219169083151502179055506000601060016101000a81548160ff021916908315150217905550348015620000d257600080fd5b506040518060400160405280600b81526020017f45524337323141544553540000000000000000000000000000000000000000008152506040518060400160405280600581526020017f37323141540000000000000000000000000000000000000000000000000000008152508160029080519060200190620001579291906200028a565b508060039080519060200190620001709291906200028a565b5062000181620001b760201b60201c565b6000819055505050620001a96200019d620001bc60201b60201c565b620001c460201b60201c565b60016009819055506200039f565b600090565b600033905090565b6000600860009054906101000a900473ffffffffffffffffffffffffffffffffffffffff16905081600860006101000a81548173ffffffffffffffffffffffffffffffffffffffff021916908373ffffffffffffffffffffffffffffffffffffffff1602179055508173ffffffffffffffffffffffffffffffffffffffff168173ffffffffffffffffffffffffffffffffffffffff167f8be0079c531659141344cd1fd0a4f28419497f9722a3daafe3b4186f6b6457e060405160405180910390a35050565b82805462000298906200033a565b90600052602060002090601f016020900481019282620002bc576000855562000308565b82601f10620002d757805160ff191683800117855562000308565b8280016001018555821562000308579182015b8281111562000307578251825591602001919060010190620002ea565b5b5090506200031791906200031b565b5090565b5b80821115620003365760008160009055506001016200031c565b5090565b600060028204905060018216806200035357607f821691505b602082108114156200036a576200036962000370565b5b50919050565b7f4e487b7100000000000000000000000000000000000000000000000000000000600052602260045260246000fd5b613a6e80620003af6000396000f3fe6080604052600436106101ee5760003560e01c8063715018a61161010d578063b88d4fde116100a0578063dab5f3401161006f578063dab5f34014610687578063e985e9c5146106b0578063ebf0c717146106ed578063f2fde38b14610718578063f7e8d6ea14610741576101ee565b8063b88d4fde146105cd578063bbaac02f146105f6578063c87b56dd1461061f578063d5abeb011461065c576101ee565b806391cee736116100dc57806391cee7361461053757806395d89b411461054e5780639613252114610579578063a22cb465146105a4576101ee565b8063715018a61461049f5780637501f741146104b65780638cc54e7f146104e15780638da5cb5b1461050c576101ee565b80633ccfd60b11610185578063518302271161015457806351830227146103cf5780636352211e146103fa5780636817c76c1461043757806370a0823114610462576101ee565b80633ccfd60b1461035757806342842e0e1461036157806345de0d9b1461038a57806347064d6a146103a6576101ee565b806318160ddd116101c157806318160ddd146102c15780631a328607146102ec57806323b872dd14610303578063243e4e811461032c576101ee565b806301ffc9a7146101f357806306fdde0314610230578063081812fc1461025b578063095ea7b314610298575b600080fd5b3480156101ff57600080fd5b5061021a60048036038101906102159190612c83565b61076c565b6040516102279190613120565b60405180910390f35b34801561023c57600080fd5b506102456107fe565b6040516102529190613156565b60405180910390f35b34801561026757600080fd5b50610282600480360381019061027d9190612d16565b610890565b60405161028f91906130b9565b60405180910390f35b3480156102a457600080fd5b506102bf60048036038101906102ba9190612bc6565b61090c565b005b3480156102cd57600080fd5b506102d6610ab3565b6040516102e391906132d8565b60405180910390f35b3480156102f857600080fd5b50610301610aca565b005b34801561030f57600080fd5b5061032a60048036038101906103259190612ac0565b610b63565b005b34801561033857600080fd5b50610341610b73565b60405161034e9190613156565b60405180910390f35b61035f610c01565b005b34801561036d57600080fd5b5061038860048036038101906103839190612ac0565b610d39565b005b6103a4600480360381019061039f9190612c02565b610d59565b005b3480156103b257600080fd5b506103cd60048036038101906103c89190612cd5565b611038565b005b3480156103db57600080fd5b506103e46110ce565b6040516103f19190613120565b60405180910390f35b34801561040657600080fd5b50610421600480360381019061041c9190612d16565b6110e1565b60405161042e91906130b9565b60405180910390f35b34801561044357600080fd5b5061044c6110f3565b60405161045991906132d8565b60405180910390f35b34801561046e57600080fd5b5061048960048036038101906104849190612a5b565b6110f9565b60405161049691906132d8565b60405180910390f35b3480156104ab57600080fd5b506104b46111b2565b005b3480156104c257600080fd5b506104cb61123a565b6040516104d891906132d8565b60405180910390f35b3480156104ed57600080fd5b506104f6611240565b6040516105039190613156565b60405180910390f35b34801561051857600080fd5b506105216112ce565b60405161052e91906130b9565b60405180910390f35b34801561054357600080fd5b5061054c6112f8565b005b34801561055a57600080fd5b50610563611391565b6040516105709190613156565b60405180910390f35b34801561058557600080fd5b5061058e611423565b60405161059b9190613120565b60405180910390f35b3480156105b057600080fd5b506105cb60048036038101906105c69190612b8a565b611436565b005b3480156105d957600080fd5b506105f460048036038101906105ef9190612b0f565b6115ae565b005b34801561060257600080fd5b5061061d60048036038101906106189190612cd5565b611621565b005b34801561062b57600080fd5b5061064660048036038101906106419190612d16565b6116b7565b6040516106539190613156565b60405180910390f35b34801561066857600080fd5b50610671611810565b60405161067e91906132d8565b60405180910390f35b34801561069357600080fd5b506106ae60048036038101906106a99190612c5a565b611816565b005b3480156106bc57600080fd5b506106d760048036038101906106d29190612a84565b61189c565b6040516106e49190613120565b60405180910390f35b3480156106f957600080fd5b50610702611930565b60405161070f919061313b565b60405180910390f35b34801561072457600080fd5b5061073f600480360381019061073a9190612a5b565b611936565b005b34801561074d57600080fd5b50610756611a2e565b6040516107639190613156565b60405180910390f35b60006301ffc9a760e01b827bffffffffffffffffffffffffffffffffffffffffffffffffffffffff191614806107c757506380ac58cd60e01b827bffffffffffffffffffffffffffffffffffffffffffffffffffffffff1916145b806107f75750635b5e139f60e01b827bffffffffffffffffffffffffffffffffffffffffffffffffffffffff1916145b9050919050565b60606002805461080d906135b2565b80601f0160208091040260200160405190810160405280929190818152602001828054610839906135b2565b80156108865780601f1061085b57610100808354040283529160200191610886565b820191906000526020600020905b81548152906001019060200180831161086957829003601f168201915b5050505050905090565b600061089b82611abc565b6108d1576040517fcf4700e400000000000000000000000000000000000000000000000000000000815260040160405180910390fd5b6006600083815260200190815260200160002060009054906101000a900473ffffffffffffffffffffffffffffffffffffffff169050919050565b600061091782611b1b565b90508073ffffffffffffffffffffffffffffffffffffffff168373ffffffffffffffffffffffffffffffffffffffff16141561097f576040517f943f7b8c00000000000000000000000000000000000000000000000000000000815260040160405180910390fd5b8073ffffffffffffffffffffffffffffffffffffffff1661099e611be9565b73ffffffffffffffffffffffffffffffffffffffff1614610a01576109ca816109c5611be9565b61189c565b610a00576040517fcfb3b94200000000000000000000000000000000000000000000000000000000815260040160405180910390fd5b5b826006600084815260200190815260200160002060006101000a81548173ffffffffffffffffffffffffffffffffffffffff021916908373ffffffffffffffffffffffffffffffffffffffff160217905550818373ffffffffffffffffffffffffffffffffffffffff168273ffffffffffffffffffffffffffffffffffffffff167f8c5be1e5ebec7d5bd14f71427d1e84f3dd0314c0f7b2291e5b200ac8c7c3b92560405160405180910390a4505050565b6000610abd611bf1565b6001546000540303905090565b610ad2611bf6565b73ffffffffffffffffffffffffffffffffffffffff16610af06112ce565b73ffffffffffffffffffffffffffffffffffffffff1614610b46576040517f08c379a0000000000000000000000000000000000000000000000000000000008152600401610b3d90613258565b60405180910390fd5b6001601060016101000a81548160ff021916908315150217905550565b610b6e838383611bfe565b505050565b600c8054610b80906135b2565b80601f0160208091040260200160405190810160405280929190818152602001828054610bac906135b2565b8015610bf95780601f10610bce57610100808354040283529160200191610bf9565b820191906000526020600020905b815481529060010190602001808311610bdc57829003601f168201915b505050505081565b610c09611bf6565b73ffffffffffffffffffffffffffffffffffffffff16610c276112ce565b73ffffffffffffffffffffffffffffffffffffffff1614610c7d576040517f08c379a0000000000000000000000000000000000000000000000000000000008152600401610c7490613258565b60405180910390fd5b60004711610cc0576040517f08c379a0000000000000000000000000000000000000000000000000000000008152600401610cb790613238565b60405180910390fd5b60003373ffffffffffffffffffffffffffffffffffffffff1647604051610ce6906130a4565b60006040518083038185875af1925050503d8060008114610d23576040519150601f19603f3d011682016040523d82523d6000602084013e610d28565b606091505b5050905080610d3657600080fd5b50565b610d54838383604051806020016040528060008152506115ae565b505050565b803373ffffffffffffffffffffffffffffffffffffffff163273ffffffffffffffffffffffffffffffffffffffff1614610dc8576040517f08c379a0000000000000000000000000000000000000000000000000000000008152600401610dbf906131b8565b60405180910390fd5b60011515601060019054906101000a900460ff16151514610e1e576040517f08c379a0000000000000000000000000000000000000000000000000000000008152600401610e1590613178565b60405180910390fd5b600f5481610e2b33611fa8565b610e3591906133dd565b1115610e76576040517f08c379a0000000000000000000000000000000000000000000000000000000008152600401610e6d906131d8565b60405180910390fd5b600081118015610e885750600f548111155b610ec7576040517f08c379a0000000000000000000000000000000000000000000000000000000008152600401610ebe906132b8565b60405180910390fd5b600d5481610ed3610ab3565b610edd91906133dd565b1115610f1e576040517f08c379a0000000000000000000000000000000000000000000000000000000008152600401610f1590613298565b60405180910390fd5b80600e54610f2c9190613464565b341015610f6e576040517f08c379a0000000000000000000000000000000000000000000000000000000008152600401610f65906131f8565b60405180910390fd5b610fe2848480806020026020016040519081016040528093929190818152602001838360200280828437600081840152601f19601f8201169050808301925050505050505060115433604051602001610fc79190613058565b60405160208183030381529060405280519060200120611fff565b611021576040517f08c379a000000000000000000000000000000000000000000000000000000000815260040161101890613218565b60405180910390fd5b61103261102c611bf6565b83612016565b50505050565b611040611bf6565b73ffffffffffffffffffffffffffffffffffffffff1661105e6112ce565b73ffffffffffffffffffffffffffffffffffffffff16146110b4576040517f08c379a00000000000000000000000000000000000000000000000000000000081526004016110ab90613258565b60405180910390fd5b80600b90805190602001906110ca929190612820565b5050565b601060009054906101000a900460ff1681565b60006110ec82611b1b565b9050919050565b600e5481565b60008073ffffffffffffffffffffffffffffffffffffffff168273ffffffffffffffffffffffffffffffffffffffff161415611161576040517f8f4eb60400000000000000000000000000000000000000000000000000000000815260040160405180910390fd5b67ffffffffffffffff600560008473ffffffffffffffffffffffffffffffffffffffff1673ffffffffffffffffffffffffffffffffffffffff16815260200190815260200160002054169050919050565b6111ba611bf6565b73ffffffffffffffffffffffffffffffffffffffff166111d86112ce565b73ffffffffffffffffffffffffffffffffffffffff161461122e576040517f08c379a000000000000000000000000000000000000000000000000000000000815260040161122590613258565b60405180910390fd5b6112386000612034565b565b600f5481565b600a805461124d906135b2565b80601f0160208091040260200160405190810160405280929190818152602001828054611279906135b2565b80156112c65780601f1061129b576101008083540402835291602001916112c6565b820191906000526020600020905b8154815290600101906020018083116112a957829003601f168201915b505050505081565b6000600860009054906101000a900473ffffffffffffffffffffffffffffffffffffffff16905090565b611300611bf6565b73ffffffffffffffffffffffffffffffffffffffff1661131e6112ce565b73ffffffffffffffffffffffffffffffffffffffff1614611374576040517f08c379a000000000000000000000000000000000000000000000000000000000815260040161136b90613258565b60405180910390fd5b6001601060006101000a81548160ff021916908315150217905550565b6060600380546113a0906135b2565b80601f01602080910402602001604051908101604052809291908181526020018280546113cc906135b2565b80156114195780601f106113ee57610100808354040283529160200191611419565b820191906000526020600020905b8154815290600101906020018083116113fc57829003601f168201915b5050505050905090565b601060019054906101000a900460ff1681565b61143e611be9565b73ffffffffffffffffffffffffffffffffffffffff168273ffffffffffffffffffffffffffffffffffffffff1614156114a3576040517fb06307db00000000000000000000000000000000000000000000000000000000815260040160405180910390fd5b80600760006114b0611be9565b73ffffffffffffffffffffffffffffffffffffffff1673ffffffffffffffffffffffffffffffffffffffff16815260200190815260200160002060008473ffffffffffffffffffffffffffffffffffffffff1673ffffffffffffffffffffffffffffffffffffffff16815260200190815260200160002060006101000a81548160ff0219169083151502179055508173ffffffffffffffffffffffffffffffffffffffff1661155d611be9565b73ffffffffffffffffffffffffffffffffffffffff167f17307eab39ab6107e8899845ad3d59bd9653f200f220920489ca2b5937696c31836040516115a29190613120565b60405180910390a35050565b6115b9848484611bfe565b60008373ffffffffffffffffffffffffffffffffffffffff163b1461161b576115e4848484846120fa565b61161a576040517fd1a57ed600000000000000000000000000000000000000000000000000000000815260040160405180910390fd5b5b50505050565b611629611bf6565b73ffffffffffffffffffffffffffffffffffffffff166116476112ce565b73ffffffffffffffffffffffffffffffffffffffff161461169d576040517f08c379a000000000000000000000000000000000000000000000000000000000815260040161169490613258565b60405180910390fd5b80600a90805190602001906116b3929190612820565b5050565b60606116c282611abc565b611701576040517f08c379a00000000000000000000000000000000000000000000000000000000081526004016116f890613278565b60405180910390fd5b60001515601060009054906101000a900460ff16151514156117af57600a805461172a906135b2565b80601f0160208091040260200160405190810160405280929190818152602001828054611756906135b2565b80156117a35780601f10611778576101008083540402835291602001916117a3565b820191906000526020600020905b81548152906001019060200180831161178657829003601f168201915b5050505050905061180b565b60006117b961225a565b905060008151116117d95760405180602001604052806000815250611807565b806117e3846122ec565b600c6040516020016117f793929190613073565b6040516020818303038152906040525b9150505b919050565b600d5481565b61181e611bf6565b73ffffffffffffffffffffffffffffffffffffffff1661183c6112ce565b73ffffffffffffffffffffffffffffffffffffffff1614611892576040517f08c379a000000000000000000000000000000000000000000000000000000000815260040161188990613258565b60405180910390fd5b8060118190555050565b6000600760008473ffffffffffffffffffffffffffffffffffffffff1673ffffffffffffffffffffffffffffffffffffffff16815260200190815260200160002060008373ffffffffffffffffffffffffffffffffffffffff1673ffffffffffffffffffffffffffffffffffffffff16815260200190815260200160002060009054906101000a900460ff16905092915050565b60115481565b61193e611bf6565b73ffffffffffffffffffffffffffffffffffffffff1661195c6112ce565b73ffffffffffffffffffffffffffffffffffffffff16146119b2576040517f08c379a00000000000000000000000000000000000000000000000000000000081526004016119a990613258565b60405180910390fd5b600073ffffffffffffffffffffffffffffffffffffffff168173ffffffffffffffffffffffffffffffffffffffff161415611a22576040517f08c379a0000000000000000000000000000000000000000000000000000000008152600401611a1990613198565b60405180910390fd5b611a2b81612034565b50565b600b8054611a3b906135b2565b80601f0160208091040260200160405190810160405280929190818152602001828054611a67906135b2565b8015611ab45780601f10611a8957610100808354040283529160200191611ab4565b820191906000526020600020905b815481529060010190602001808311611a9757829003601f168201915b505050505081565b600081611ac7611bf1565b11158015611ad6575060005482105b8015611b14575060007c0100000000000000000000000000000000000000000000000000000000600460008581526020019081526020016000205416145b9050919050565b60008082905080611b2a611bf1565b11611bb257600054811015611bb15760006004600083815260200190815260200160002054905060007c010000000000000000000000000000000000000000000000000000000082161415611baf575b6000811415611ba5576004600083600190039350838152602001908152602001600020549050611b7a565b8092505050611be4565b505b5b6040517fdf2d9b4200000000000000000000000000000000000000000000000000000000815260040160405180910390fd5b919050565b600033905090565b600090565b600033905090565b6000611c0982611b1b565b90508373ffffffffffffffffffffffffffffffffffffffff168173ffffffffffffffffffffffffffffffffffffffff1614611c70576040517fa114810000000000000000000000000000000000000000000000000000000000815260040160405180910390fd5b60008473ffffffffffffffffffffffffffffffffffffffff16611c91611be9565b73ffffffffffffffffffffffffffffffffffffffff161480611cc05750611cbf85611cba611be9565b61189c565b5b80611d055750611cce611be9565b73ffffffffffffffffffffffffffffffffffffffff16611ced84610890565b73ffffffffffffffffffffffffffffffffffffffff16145b905080611d3e576040517f59c896be00000000000000000000000000000000000000000000000000000000815260040160405180910390fd5b600073ffffffffffffffffffffffffffffffffffffffff168473ffffffffffffffffffffffffffffffffffffffff161415611da5576040517fea553b3400000000000000000000000000000000000000000000000000000000815260040160405180910390fd5b611db28585856001612499565b6006600084815260200190815260200160002060006101000a81549073ffffffffffffffffffffffffffffffffffffffff0219169055600560008673ffffffffffffffffffffffffffffffffffffffff1673ffffffffffffffffffffffffffffffffffffffff168152602001908152602001600020600081546001900391905081905550600560008573ffffffffffffffffffffffffffffffffffffffff1673ffffffffffffffffffffffffffffffffffffffff16815260200190815260200160002060008154600101919050819055507c020000000000000000000000000000000000000000000000000000000060a042901b611eaf8661249f565b1717600460008581526020019081526020016000208190555060007c020000000000000000000000000000000000000000000000000000000083161415611f39576000600184019050600060046000838152602001908152602001600020541415611f37576000548114611f36578260046000838152602001908152602001600020819055505b5b505b828473ffffffffffffffffffffffffffffffffffffffff168673ffffffffffffffffffffffffffffffffffffffff167fddf252ad1be2c89b69c2b068fc378daa952ba7f163c4a11628f55a4df523b3ef60405160405180910390a4611fa185858560016124a9565b5050505050565b600067ffffffffffffffff6040600560008573ffffffffffffffffffffffffffffffffffffffff1673ffffffffffffffffffffffffffffffffffffffff16815260200190815260200160002054901c169050919050565b60008261200c85846124af565b1490509392505050565b61203082826040518060200160405280600081525061254a565b5050565b6000600860009054906101000a900473ffffffffffffffffffffffffffffffffffffffff16905081600860006101000a81548173ffffffffffffffffffffffffffffffffffffffff021916908373ffffffffffffffffffffffffffffffffffffffff1602179055508173ffffffffffffffffffffffffffffffffffffffff168173ffffffffffffffffffffffffffffffffffffffff167f8be0079c531659141344cd1fd0a4f28419497f9722a3daafe3b4186f6b6457e060405160405180910390a35050565b60008373ffffffffffffffffffffffffffffffffffffffff1663150b7a02612120611be9565b8786866040518563ffffffff1660e01b815260040161214294939291906130d4565b602060405180830381600087803b15801561215c57600080fd5b505af192505050801561218d57506040513d601f19601f8201168201806040525081019061218a9190612cac565b60015b612207573d80600081146121bd576040519150601f19603f3d011682016040523d82523d6000602084013e6121c2565b606091505b506000815114156121ff576040517fd1a57ed600000000000000000000000000000000000000000000000000000000815260040160405180910390fd5b805181602001fd5b63150b7a0260e01b7bffffffffffffffffffffffffffffffffffffffffffffffffffffffff1916817bffffffffffffffffffffffffffffffffffffffffffffffffffffffff191614915050949350505050565b6060600b8054612269906135b2565b80601f0160208091040260200160405190810160405280929190818152602001828054612295906135b2565b80156122e25780601f106122b7576101008083540402835291602001916122e2565b820191906000526020600020905b8154815290600101906020018083116122c557829003601f168201915b5050505050905090565b60606000821415612334576040518060400160405280600181526020017f30000000000000000000000000000000000000000000000000000000000000008152509050612494565b600082905060005b6000821461236657808061234f90613615565b915050600a8261235f9190613433565b915061233c565b60008167ffffffffffffffff8111156123a8577f4e487b7100000000000000000000000000000000000000000000000000000000600052604160045260246000fd5b6040519080825280601f01601f1916602001820160405280156123da5781602001600182028036833780820191505090505b5090505b6000851461248d576001826123f391906134be565b9150600a856124029190613682565b603061240e91906133dd565b60f81b81838151811061244a577f4e487b7100000000000000000000000000000000000000000000000000000000600052603260045260246000fd5b60200101907effffffffffffffffffffffffffffffffffffffffffffffffffffffffffffff1916908160001a905350600a856124869190613433565b94506123de565b8093505050505b919050565b50505050565b6000819050919050565b50505050565b60008082905060005b845181101561253f5760008582815181106124fc577f4e487b7100000000000000000000000000000000000000000000000000000000600052603260045260246000fd5b6020026020010151905080831161251e5761251783826127ff565b925061252b565b61252881846127ff565b92505b50808061253790613615565b9150506124b8565b508091505092915050565b600080549050600073ffffffffffffffffffffffffffffffffffffffff168473ffffffffffffffffffffffffffffffffffffffff1614156125b7576040517f2e07630000000000000000000000000000000000000000000000000000000000815260040160405180910390fd5b60008314156125f2576040517fb562e8dd00000000000000000000000000000000000000000000000000000000815260040160405180910390fd5b6125ff6000858386612499565b600160406001901b178302600560008673ffffffffffffffffffffffffffffffffffffffff1673ffffffffffffffffffffffffffffffffffffffff1681526020019081526020016000206000828254019250508190555060e161266460018514612816565b901b60a042901b6126748661249f565b1717600460008381526020019081526020016000208190555060008190506000848201905060008673ffffffffffffffffffffffffffffffffffffffff163b14612778575b818673ffffffffffffffffffffffffffffffffffffffff16600073ffffffffffffffffffffffffffffffffffffffff167fddf252ad1be2c89b69c2b068fc378daa952ba7f163c4a11628f55a4df523b3ef60405160405180910390a461272860008784806001019550876120fa565b61275e576040517fd1a57ed600000000000000000000000000000000000000000000000000000000815260040160405180910390fd5b8082106126b957826000541461277357600080fd5b6127e3565b5b818060010192508673ffffffffffffffffffffffffffffffffffffffff16600073ffffffffffffffffffffffffffffffffffffffff167fddf252ad1be2c89b69c2b068fc378daa952ba7f163c4a11628f55a4df523b3ef60405160405180910390a4808210612779575b8160008190555050506127f960008583866124a9565b50505050565b600082600052816020526040600020905092915050565b6000819050919050565b82805461282c906135b2565b90600052602060002090601f01602090048101928261284e5760008555612895565b82601f1061286757805160ff1916838001178555612895565b82800160010185558215612895579182015b82811115612894578251825591602001919060010190612879565b5b5090506128a291906128a6565b5090565b5b808211156128bf5760008160009055506001016128a7565b5090565b60006128d66128d184613318565b6132f3565b9050828152602081018484840111156128ee57600080fd5b6128f9848285613570565b509392505050565b600061291461290f84613349565b6132f3565b90508281526020810184848401111561292c57600080fd5b612937848285613570565b509392505050565b60008135905061294e816139c5565b92915050565b60008083601f84011261296657600080fd5b8235905067ffffffffffffffff81111561297f57600080fd5b60208301915083602082028301111561299757600080fd5b9250929050565b6000813590506129ad816139dc565b92915050565b6000813590506129c2816139f3565b92915050565b6000813590506129d781613a0a565b92915050565b6000815190506129ec81613a0a565b92915050565b600082601f830112612a0357600080fd5b8135612a138482602086016128c3565b91505092915050565b600082601f830112612a2d57600080fd5b8135612a3d848260208601612901565b91505092915050565b600081359050612a5581613a21565b92915050565b600060208284031215612a6d57600080fd5b6000612a7b8482850161293f565b91505092915050565b60008060408385031215612a9757600080fd5b6000612aa58582860161293f565b9250506020612ab68582860161293f565b9150509250929050565b600080600060608486031215612ad557600080fd5b6000612ae38682870161293f565b9350506020612af48682870161293f565b9250506040612b0586828701612a46565b9150509250925092565b60008060008060808587031215612b2557600080fd5b6000612b338782880161293f565b9450506020612b448782880161293f565b9350506040612b5587828801612a46565b925050606085013567ffffffffffffffff811115612b7257600080fd5b612b7e878288016129f2565b91505092959194509250565b60008060408385031215612b9d57600080fd5b6000612bab8582860161293f565b9250506020612bbc8582860161299e565b9150509250929050565b60008060408385031215612bd957600080fd5b6000612be78582860161293f565b9250506020612bf885828601612a46565b9150509250929050565b600080600060408486031215612c1757600080fd5b600084013567ffffffffffffffff811115612c3157600080fd5b612c3d86828701612954565b93509350506020612c5086828701612a46565b9150509250925092565b600060208284031215612c6c57600080fd5b6000612c7a848285016129b3565b91505092915050565b600060208284031215612c9557600080fd5b6000612ca3848285016129c8565b91505092915050565b600060208284031215612cbe57600080fd5b6000612ccc848285016129dd565b91505092915050565b600060208284031215612ce757600080fd5b600082013567ffffffffffffffff811115612d0157600080fd5b612d0d84828501612a1c565b91505092915050565b600060208284031215612d2857600080fd5b6000612d3684828501612a46565b91505092915050565b612d48816134f2565b82525050565b612d5f612d5a826134f2565b61365e565b82525050565b612d6e81613504565b82525050565b612d7d81613510565b82525050565b6000612d8e8261338f565b612d9881856133a5565b9350612da881856020860161357f565b612db18161376f565b840191505092915050565b6000612dc78261339a565b612dd181856133c1565b9350612de181856020860161357f565b612dea8161376f565b840191505092915050565b6000612e008261339a565b612e0a81856133d2565b9350612e1a81856020860161357f565b80840191505092915050565b60008154612e33816135b2565b612e3d81866133d2565b94506001821660008114612e585760018114612e6957612e9c565b60ff19831686528186019350612e9c565b612e728561337a565b60005b83811015612e9457815481890152600182019150602081019050612e75565b838801955050505b50505092915050565b6000612eb26034836133c1565b9150612ebd8261378d565b604082019050919050565b6000612ed56026836133c1565b9150612ee0826137dc565b604082019050919050565b6000612ef86008836133c1565b9150612f038261382b565b602082019050919050565b6000612f1b6017836133c1565b9150612f2682613854565b602082019050919050565b6000612f3e6012836133c1565b9150612f498261387d565b602082019050919050565b6000612f616015836133c1565b9150612f6c826138a6565b602082019050919050565b6000612f84600c836133c1565b9150612f8f826138cf565b602082019050919050565b6000612fa76020836133c1565b9150612fb2826138f8565b602082019050919050565b6000612fca602f836133c1565b9150612fd582613921565b604082019050919050565b6000612fed6013836133c1565b9150612ff882613970565b602082019050919050565b60006130106000836133b6565b915061301b82613999565b600082019050919050565b60006130336013836133c1565b915061303e8261399c565b602082019050919050565b61305281613566565b82525050565b60006130648284612d4e565b60148201915081905092915050565b600061307f8286612df5565b915061308b8285612df5565b91506130978284612e26565b9150819050949350505050565b60006130af82613003565b9150819050919050565b60006020820190506130ce6000830184612d3f565b92915050565b60006080820190506130e96000830187612d3f565b6130f66020830186612d3f565b6131036040830185613049565b81810360608301526131158184612d83565b905095945050505050565b60006020820190506131356000830184612d65565b92915050565b60006020820190506131506000830184612d74565b92915050565b600060208201905081810360008301526131708184612dbc565b905092915050565b6000602082019050818103600083015261319181612ea5565b9050919050565b600060208201905081810360008301526131b181612ec8565b9050919050565b600060208201905081810360008301526131d181612eeb565b9050919050565b600060208201905081810360008301526131f181612f0e565b9050919050565b6000602082019050818103600083015261321181612f31565b9050919050565b6000602082019050818103600083015261323181612f54565b9050919050565b6000602082019050818103600083015261325181612f77565b9050919050565b6000602082019050818103600083015261327181612f9a565b9050919050565b6000602082019050818103600083015261329181612fbd565b9050919050565b600060208201905081810360008301526132b181612fe0565b9050919050565b600060208201905081810360008301526132d181613026565b9050919050565b60006020820190506132ed6000830184613049565b92915050565b60006132fd61330e565b905061330982826135e4565b919050565b6000604051905090565b600067ffffffffffffffff82111561333357613332613740565b5b61333c8261376f565b9050602081019050919050565b600067ffffffffffffffff82111561336457613363613740565b5b61336d8261376f565b9050602081019050919050565b60008190508160005260206000209050919050565b600081519050919050565b600081519050919050565b600082825260208201905092915050565b600081905092915050565b600082825260208201905092915050565b600081905092915050565b60006133e882613566565b91506133f383613566565b9250827fffffffffffffffffffffffffffffffffffffffffffffffffffffffffffffffff03821115613428576134276136b3565b5b828201905092915050565b600061343e82613566565b915061344983613566565b925082613459576134586136e2565b5b828204905092915050565b600061346f82613566565b915061347a83613566565b9250817fffffffffffffffffffffffffffffffffffffffffffffffffffffffffffffffff04831182151516156134b3576134b26136b3565b5b828202905092915050565b60006134c982613566565b91506134d483613566565b9250828210156134e7576134e66136b3565b5b828203905092915050565b60006134fd82613546565b9050919050565b60008115159050919050565b6000819050919050565b60007fffffffff0000000000000000000000000000000000000000000000000000000082169050919050565b600073ffffffffffffffffffffffffffffffffffffffff82169050919050565b6000819050919050565b82818337600083830152505050565b60005b8381101561359d578082015181840152602081019050613582565b838111156135ac576000848401525b50505050565b600060028204905060018216806135ca57607f821691505b602082108114156135de576135dd613711565b5b50919050565b6135ed8261376f565b810181811067ffffffffffffffff8211171561360c5761360b613740565b5b80604052505050565b600061362082613566565b91507fffffffffffffffffffffffffffffffffffffffffffffffffffffffffffffffff821415613653576136526136b3565b5b600182019050919050565b600061366982613670565b9050919050565b600061367b82613780565b9050919050565b600061368d82613566565b915061369883613566565b9250826136a8576136a76136e2565b5b828206905092915050565b7f4e487b7100000000000000000000000000000000000000000000000000000000600052601160045260246000fd5b7f4e487b7100000000000000000000000000000000000000000000000000000000600052601260045260246000fd5b7f4e487b7100000000000000000000000000000000000000000000000000000000600052602260045260246000fd5b7f4e487b7100000000000000000000000000000000000000000000000000000000600052604160045260246000fd5b6000601f19601f8301169050919050565b60008160601b9050919050565b7f50726f6a65637420686173206e6f74206265656e2072656c656173656420796560008201527f742e20506c656173652062652070617469656e74000000000000000000000000602082015250565b7f4f776e61626c653a206e6577206f776e657220697320746865207a65726f206160008201527f6464726573730000000000000000000000000000000000000000000000000000602082015250565b7f4e69636520747279000000000000000000000000000000000000000000000000600082015250565b7f4d6178205065722057616c6c6574204578636565646564000000000000000000600082015250565b7f4572726f723a204c6f772042616c616e63650000000000000000000000000000600082015250565b7f496e76616c6964204d65726b6c652050726f6f662e0000000000000000000000600082015250565b7f42616c616e636520697320300000000000000000000000000000000000000000600082015250565b7f4f776e61626c653a2063616c6c6572206973206e6f7420746865206f776e6572600082015250565b7f4552433732314d657461646174613a2055524920717565727920666f72206e6f60008201527f6e6578697374656e7420746f6b656e0000000000000000000000000000000000602082015250565b7f4578636565646564206d617820737570706c7900000000000000000000000000600082015250565b50565b7f496e76616c6964206d696e7420616d6f756e7400000000000000000000000000600082015250565b6139ce816134f2565b81146139d957600080fd5b50565b6139e581613504565b81146139f057600080fd5b50565b6139fc81613510565b8114613a0757600080fd5b50565b613a138161351a565b8114613a1e57600080fd5b50565b613a2a81613566565b8114613a3557600080fd5b5056fea2646970667358221220fa1588e74862923967e1c8bb078d66653f05f4bc27906dcb5ba95f14fa66f4d564736f6c63430008040033",
    "linkReferences": {},
    "deployedLinkReferences": {}
}